{
  "contractName": "SmartVault",
  "abi": [
    {
      "inputs": [],
      "payable": false,
      "stateMutability": "nonpayable",
      "type": "constructor"
    },
    {
      "constant": true,
      "inputs": [],
      "name": "isLocked",
      "outputs": [
        {
          "internalType": "bool",
          "name": "",
          "type": "bool"
        }
      ],
      "payable": false,
      "stateMutability": "view",
      "type": "function"
    },
    {
      "constant": false,
      "inputs": [],
      "name": "lockFunds",
      "outputs": [
        {
          "internalType": "uint256",
          "name": "",
          "type": "uint256"
        }
      ],
      "payable": true,
      "stateMutability": "payable",
      "type": "function"
    },
    {
      "constant": false,
      "inputs": [
        {
          "internalType": "uint256",
          "name": "amount",
          "type": "uint256"
        }
      ],
      "name": "withdraw",
      "outputs": [],
      "payable": false,
      "stateMutability": "nonpayable",
      "type": "function"
    },
    {
      "constant": true,
      "inputs": [],
      "name": "getBalance",
      "outputs": [
        {
          "internalType": "uint256",
          "name": "",
          "type": "uint256"
        }
      ],
      "payable": false,
      "stateMutability": "view",
      "type": "function"
    }
  ],
  "bytecode": "0x608060405234801561001057600080fd5b5033600260006101000a81548173ffffffffffffffffffffffffffffffffffffffff021916908373ffffffffffffffffffffffffffffffffffffffff160217905550610493806100616000396000f3fe60806040526004361061003f5760003560e01c806312065fe0146100445780632e1a7d4d1461006f578063a4e2d634146100aa578063fa9befda146100d9575b600080fd5b34801561005057600080fd5b506100596100f7565b6040518082815260200191505060405180910390f35b34801561007b57600080fd5b506100a86004803603602081101561009257600080fd5b8101908080359060200190929190505050610101565b005b3480156100b657600080fd5b506100bf61033e565b604051808215151515815260200191505060405180910390f35b6100e16103cc565b6040518082815260200191505060405180910390f35b6000600154905090565b600260009054906101000a900473ffffffffffffffffffffffffffffffffffffffff1673ffffffffffffffffffffffffffffffffffffffff163373ffffffffffffffffffffffffffffffffffffffff161461015b57600080fd5b61016361033e565b156101d6576040517f08c379a00000000000000000000000000000000000000000000000000000000081526004018080602001828103825260148152602001807f546865205661756c74206973206c6f636b65642e00000000000000000000000081525060200191505060405180910390fd5b60006001541161024e576040517f08c379a00000000000000000000000000000000000000000000000000000000081526004018080602001828103825260138152602001807f546865205661756c7420697320656d7074792e0000000000000000000000000081525060200191505060405180910390fd5b60008082111561026a57670de0b6b3a764000082029050610270565b60015490505b8060015410156102e8576040517f08c379a00000000000000000000000000000000000000000000000000000000081526004018080602001828103825260118152602001807f4e6f7420656e6f7567682066756e64732e00000000000000000000000000000081525060200191505060405180910390fd5b80600154036001819055503373ffffffffffffffffffffffffffffffffffffffff166108fc829081150290604051600060405180830381858888f19350505050158015610339573d6000803e3d6000fd5b505050565b6000806007600462015180428161035157fe5b04018161035a57fe5b06600681111561036657fe5b9050600060026018603c80428161037957fe5b048161038157fe5b048161038957fe5b060190506001600681111561039a57fe5b8260068111156103a657fe5b1480156103b35750601381145b6103c2576001925050506103c9565b6000925050505b90565b600060013411610444576040517f08c379a000000000000000000000000000000000000000000000000000000000815260040180806020018281038252601a8152602001807f4e6f7420656e6f7567682045746865722070726f76696465642e00000000000081525060200191505060405180910390fd5b42600081905550346001540160018190555060015490509056fea265627a7a72315820fa77c02321d8757d5b14028a49a3e9ca64e7b848ce12beaefd8d37c49797b97064736f6c63430005100032",
  "source": "/**\n * SPDX-License-Identifier: UNLICENSED\n */\npragma solidity >=0.4.22 <0.8.0;\n\n/**\n * @title Vault\n * @dev Timelocked Vault\n */\ncontract SmartVault {\n    enum WeekDay {\n        Monday,\n        Tuesday,\n        Wednesday,\n        Thursday,\n        Friday,\n        Saturday,\n        Sunday\n    }\n    uint256 lockedAt;\n    uint256 funds;\n    address owner;\n\n    modifier ownerOnly() {\n        require(msg.sender == owner);\n        _;\n    }\n\n    constructor() public {\n        owner = msg.sender;\n    }\n\n    function isLocked() public view returns (bool) {\n        WeekDay today = WeekDay((block.timestamp / 86400 + 4) % 7);\n        uint256 currentHour = ((block.timestamp / 60 / 60) % 24) + 2;\n\n        if (!(today == WeekDay.Tuesday && currentHour == 19)) {\n            return true;\n        } else {\n            return false;\n        }\n    }\n\n    function lockFunds() public payable returns (uint256) {\n        require(msg.value > 1, \"Not enough Ether provided.\");\n\n        lockedAt = block.timestamp;\n        funds = funds + msg.value;\n\n        return funds;\n    }\n\n    function withdraw(uint256 amount) public ownerOnly {\n        require(!isLocked(), \"The Vault is locked.\");\n        require(funds > 0, \"The Vault is empty.\");\n\n        uint256 withdrawalAmount;\n\n        if (amount > 0) {\n            withdrawalAmount = amount * 10**18;\n        } else {\n            withdrawalAmount = funds;\n        }\n\n        require(funds >= withdrawalAmount, \"Not enough funds.\");\n\n        funds = funds - withdrawalAmount;\n        msg.sender.transfer(withdrawalAmount);\n    }\n\n    function getBalance() public view returns (uint256) {\n        return funds;\n    }\n}\n",
  "sourcePath": "/Users/rryter/Projects/smart-contract-training/contracts/SmartVault.sol",
  "compiler": {
    "name": "solc",
    "version": "0.5.16+commit.9c3226ce.Emscripten.clang"
  },
  "schemaVersion": "3.2.5",
  "updatedAt": "2020-09-17T05:24:56.824Z",
  "networkType": "ethereum",
  "devdoc": {
    "details": "Timelocked Vault",
    "methods": {},
    "title": "Vault"
  },
  "userdoc": {
    "methods": {}
  }
}